:020000040800F2
:10000000D0080020B5010008FD3300083929000898
:1000100000000000000000000000000000000000E0
:100020000000000000000000000000000134000893
:100030000000000000000000FF3300080334000847
:10004000C7010008C7010008C7010008C701000870
:10005000C7010008C7010008C7010008C701000860
:10006000C7010008C7010008C7010008C701000850
:10007000C7010008C701000800000000C701000810
:10008000000000000D340008000000000000000027
:10009000C701000800000000C7010008C7010008F0
:1000A000C7010008C7010008C7010008C701000810
:1000B000C7010008C7010008C7010008C701000800
:1000C00000F002F800F04BF80CA030C808382418F3
:1000D0002D18671EA246AB4654465D46AC4201D180
:1000E00000F03DF87E460F3EB6460FCC0126334267
:1000F00000D0FB1A3343A246AB461847AC4200007F
:10010000CC420000103A02D378C878C1FAD852071E
:1001100001D330C830C101D504680C6070470000BD
:100120000023002400250026103A01D378C1FBD813
:10013000520700D330C100D50B60704710B5642959
:1001400002D100F03FF910BD732902D100F03EFC4E
:1001500010BD002010BD1FB51FBD10B510BD00F0B3
:100160004DFC1146FFF7F7FF03F04CFC00F065FC77
:1001700003B4FFF7F2FF03BC00F06CFC70B505465A
:100180000C46164602E00FCC0FC5103E102EFAD2D8
:10019000082E02D303CC03C5083E042E07D301CC9E
:1001A00001C5361F03E021782970641C6D1C761E82
:1001B000F9D270BD0748804707480047FEE7FEE7D1
:1001C000FEE7FEE7FEE7FEE704480549054A064B61
:1001D000704700000B340008C1000008D002002066
:1001E000D0080020D0040020D0040020FEB5044632
:1001F00010460D46184373D0A6468C460020A41A1C
:1002000001469D4167D36646002701243D46B61A44
:100210009D4102D313463A462124654676462F0473
:10022000360C3E432D0CB61A9D4104D3150C1B040D
:100230002B4312041034654676462F06360A3E4399
:100240002D0AB61A9D4104D3150E1B022B43120230
:100250000834654676462F0736093E432D09B61AFF
:100260009D4104D3150F1B012B431201241D65462C
:100270007646AF07B6083E43AD08B61A9D4104D393
:10028000950F9B002B439200A41C65467646EF0712
:1002900076083E436D08B61A9D411AD392185B4109
:1002A000641C16E00018764665464941B71A9D4120
:1002B0000191009009D36046B11A98418E46844658
:1002C000009801990025401C6941DD0752082A4326
:1002D0005B08641EE6D57246634603B0F0BDFFE7D7
:1002E0002046284307D00020C0430146C046C046F0
:1002F00022462B46F1E700200146F7E70FB41CB574
:10030000074B06AA7B4469460090059800F033FB32
:100310000020694600F042FB1CBC08BC04B0184732
:100320009506000070B5044685690068C10601D5D0
:10033000302600E02026C00707D070BD6268304636
:10034000A1689047206A401C20626D1EF6D570BDE2
:1003500070B5044685690078C00707D170BD626832
:10036000A16820209047206A401C20626D1EF6D5AF
:1003700070BD70B50C460546012A05D02878800668
:1003800000D5EA69002302E0012305E05B1C9342EB
:1003900002D2E05C0028F9D1A869E618C01AA86169
:1003A000286AC01828622846FFF7BCFF04E06A6884
:1003B0002078A968641C9047B442F8D32846FFF718
:1003C000C7FF70BDF7B5002575291068009914A600
:1003D00011D0C046C046002802DA404211A608E00B
:1003E000009909688A0701D50FA602E0490704D5DC
:1003F0000EA6012501E0C046C046009F0024243718
:1004000004E000F0E7FA30313955641C0028F8D1D7
:100410002B4632462146009800F050FAFEBD0000FF
:10042000000000002D0000002B0000002000000054
:10043000F3B50446002081B020622046E168884779
:1004400000287DD0252802D06268A16883E0454F4E
:1004500000257F442046E16888472028064608DBBF
:10046000312E06D2B81920380078002801D0054373
:10047000F0E7A80701D5042085430020E061074686
:10048000A0612A2E0AD0304603F059FF002827D059
:10049000B8000019303E0090866119E00298BA0059
:1004A000121902C8916102902046E1688847012F25
:1004B000064617D1E06900281FDA202085431CE09A
:1004C00000980A2180694843009980193038886172
:1004D0002046E1688847064603F031FF0028EFD147
:1004E000012F0AD02E2E08D12046E1688847064603
:1004F000202005437F1C022FC3DBA069002803DAFC
:100500004042A06101200543E80701D01020854347
:10051000002E24D030464138192803D80120C002CB
:1005200005432036204625603146029A1546FFF7DE
:1005300005FE00280CD0012807D0ED1DE80800E0DA
:100540000DE0C0000830029077E72D1D029574E79A
:1005500062683046A1689047206A401C6CE7206AB8
:10056000FEBD0000F63E000001E004C0091F0429A2
:10057000FBD28B0701D50280801CC90700D0027016
:10058000704700290BD0C30702D00270401C491EDF
:10059000022904D3830702D50280801C891EE3E769
:1005A0000022EEE70022DFE7704770477047000047
:1005B00030B50346CA02400D1043164D164C0A15BD
:1005C00002D02043002A06DBAA1A002A12DDD040FE
:1005D000FF2A0BDC30BD5205520D01D1400040080E
:1005E000AA1A07D4D0404042FF2A01DD002030BDC6
:1005F0000028FCDD4A00002B01D0012000E0002093
:10060000101801225205D042F0D8C817C0436040EC
:1006100030BD00001E040000000000801F22030CFB
:1006200002D10F22000402D0030E03D004E0002008
:10063000014670470002083A030F01D10001121F62
:10064000830F01D18000921E002801DB4000521E62
:10065000120551184205C012411810467047C10FCB
:10066000C90700D04042012292071143D6E7012179
:100670008907D3E7F0B58B4C0F09254689B0BD43F8
:100680007BD01D092646AE43FAD00E465E40274079
:10069000F60F3E43254071D024012142FBD0FF24B8
:1006A000AD19A4042D1B039501252D05DB02DB0AE2
:1006B000C9022B43C90A29431E010901040F130F64
:1006C000050121431701880B820391432D098C46B4
:1006D000A90B1E438A039543B30B9A0396433F0924
:1006E000BA0B9403A74302962E467E430497B64660
:1006F0004E19D7190C460196544305977E43371B74
:100700007646BF1B3601B646BE0B361900967646B6
:10071000BC043719009C01D3641C00946400002FB2
:1007200001D001263443029E049F754366467E43F2
:100730000496760034196E0034190094029C019ED0
:100740001C196643751BAE46069465464519059C03
:1007500005956C43594375460891691A0191049EA9
:1007600001465143A41B0491611A009C0791E106C4
:1007700005D061090122114302E072E06EE06109D7
:10078000089D00272C0A2D066918049D7C412A0A21
:100790002D066918019D6241AC0DAD026D185441E2
:1007A000079A910D920255196141029A6446584385
:1007B0005443069B059A5A43121A131B9A0E9B0127
:1007C0005B187A41010B0005C3185141220A20062B
:1007D00044195A419A4200D2491C012040028142E8
:1007E00003D315230226F64302E014230326F6431F
:1007F0002020C51AA9401746AF40DA400A432046D8
:100800000399D8400914731819055118039A3843ED
:10081000D2075140AC4009D00122944006D30022B7
:10082000401C5141002C01D1400840001E4A934217
:1008300012D3012203989206904207DB052040075D
:1008400009181A480143C012414004E00320400740
:100850000818C10FC907002009B0F0BD0020F1073A
:10086000FAE705180C464C4111486D42A04115D3DA
:1008700094181A465A410E48644290410ED3012002
:100880004A004005824209D35A00824206D35940A9
:10089000C90F084AC90700201143DDE700200649B7
:1008A000DAE700000000FF07FE070000FFFFFF7F00
:1008B0000000E0FF0000F07F0000F87FFFB5044675
:1008C0000D4681B0243000902168880604D510229E
:1008D000E0699143216000E00120A84201DD471B4F
:1008E00000E000270498A1697A191018081AA0617D
:1008F0002078C00602D42046FFF714FD002608E049
:1009000003986268A168805D9047206A401C761C4D
:10091000206204988642F3DB2078C0060AD5204680
:10092000FFF700FD06E06268A16830209047206A6A
:10093000401C206238467F1E0028F4DC07E0009847
:100940006268A168405D9047206A401C206228468A
:100950006D1E0028F3DC2046FFF7FAFC2078000625
:1009600002D5022005B0F0BD0120FBE701694A1C59
:1009700002610878704700B58FB00291002105919F
:100980000549019379440391114604906846FFF7A5
:100990004FFD0FB000BD0000E5FFFFFF0A681070BB
:1009A000521C0A60704710B54369002B02D0C04644
:1009B000C04601E0FFF7DDFC012010BD12780146C2
:1009C00024310A7000224A700122ECE711680022EB
:1009D000D243E8E701468008081A02091018020A03
:1009E0001018020C1018C008820012185200891A40
:1009F00001E0401C0A390A29FBD27047754600F015
:100A000025F8AE46050069465346C008C000854635
:100A100018B020B5FFF7D8FB60BCB646002600270B
:100A2000C0C5C0C5C0C5C0C5C0C5C0C5C0C5C0C59E
:100A3000403D490849008D46704710B50446C04600
:100A4000C0462046FFF794FB10BD000000487047E9
:100A50001000002001491820ABBEFEE7260002006E
:100A60007047000070B582B00446006881680322B8
:100A70000A40012A02D10168C90747D18168254A85
:100A800011420AD0606D102101436165A06D0125FE
:100A90002843A065284602B070BD816801220A4340
:100AA000826060480068604903F04EFB0190019845
:100AB000002817D00198401E01900198002811D0FD
:100AC0000198401E0190019800280BD00198401E0B
:100AD00001900198002805D00198401E01900198CE
:100AE0000028E7D100F0C8FB064620680068002512
:100AF00000E00068C007CDD100F0BEFB811B20687C
:100B00000B29F6D30168C907F3D1BBE700252846B6
:100B100002B070BD17000080EFF3108072B6FEE7E0
:100B200070B582B05022825C012A02D1022002B04C
:100B300070BD04465034026893685B0711D40E6898
:100B4000496836483040A84D354B994212D1916AD8
:100B500081439162700320D4B00325D4F0032FD5D4
:100B600029E0416D20220A434265012000212170C5
:100B700002B070BD916A01439162700325D4B00345
:100B800004D501208005296801432960F00317D5A9
:100B9000012001062868084311E00120C0052968EA
:100BA00081432960B003D9D501208005296881439C
:100BB0002960F00304D501200106286888432860D5
:100BC00000200021217002B070BD0120C0052968FD
:100BD0000143296013480068134903F0B5FA0A215C
:100BE0004143019101980028C9D00198401E01900D
:100BF00001980028C3D00198401E01900198002858
:100C0000BDD00198401E019001980028B7D00198EE
:100C1000401E019001980028E7D1B0E7FFFF0700D0
:100C2000011000000800002040420F000068006C26
:100C300070470000F0B581B0012500283ED0044681
:100C400006465036406D002803D0606DC00609D5B9
:100C50002EE000203070A065204600F0C9F8606DDD
:100C6000C00625D420688168490721D48121490024
:100C7000626D8A43911C61658168032211405A4B61
:100C8000012902D10168C9072ED161680125EE074B
:100C9000B14205D0AD07A94202D09507A94210D1B3
:100CA000920705699543056102690A43026113E0F1
:100CB00000203070606D102101436165284601B04D
:100CC000F0BD0269AA4302610F2292041D68954398
:100CD0001D601A680A431A60C16818229143C160F6
:100CE000A168C2680A43C2602246203201214D0633
:100CF0001E68AE431E60656B6D061E682E431E6047
:100D00008368DB0003D40B0785681D438560009171
:100D1000C368364D1D40C56023699B1E5D425D4121
:100D2000AB00E6681E4315786B033343266B1E4306
:100D3000137B5B003343A669E769B6031E43FB03DD
:100D40003343C6681E43C660676A06460C36FF21F9
:100D50000B46C2339F4215D15278012A009F1AD008
:100D60000269E36B012B28D189008A430261234683
:100D700040330ECB0A431A430169114301610269F2
:100D80003A431EE0A36A3B4337681F4337605278FB
:100D9000012A009FE4D1002D07D0626D2023134368
:100DA0006365264658363A4600E03A0433681343F2
:100DB00033600269E36B012BD6D0D10702D0026900
:100DC000BA4302614169072291434161A16B4269C3
:100DD0000A4342610025A565606D384302218843BE
:100DE0006065284601B0F0BD082701401902FEFFEA
:100DF00010B586B000210591049100680E4A90421A
:100E000001D006B010BD012042020C4B9C68144377
:100E10009C601A6802431A601A68024000920391AB
:100E200003200290019005200007009901A900F01D
:100E30003DF906B010BDC046002401402C10024010
:100E4000F0B581B00D46044601465031406908288E
:100E500002D10091082705E02068C068C00767D16B
:100E600000910C2700F008FA06462168086838420D
:100E70001ED001204202636D13436365CA681205E8
:100E8000920F67D1224620321278002A62D10A6876
:100E900012075FD58A68520753D4224654324B68F2
:100EA0000C25AB434B60FF2502351368AB434FE085
:100EB000681C39D0002D1BD10868384221D0086841
:100EC0003842D6D1086838421BD008683842D0D1A1
:100ED0000868384215D008683842CAD108683842D4
:100EE0000FD008683842E7D0C3E708683842C0D15D
:100EF00000F0C2F9801B2168A842F6D90868384280
:100F0000F3D1002000990870606D042101436165F0
:100F1000032001B0F0BD08683842AAD10868384201
:100F2000A7D108683842A4D108683842F3D0A0E7B6
:100F300000200870606D202101436165012001B02F
:100F4000F0BD626D20231343636522465832A36DC2
:100F500003431360A2690020002A01D001B0F0BD54
:100F60000C220A6001B0F0BD70B5044600688168CB
:100F7000022049070FD45021615C01290BD025467E
:100F8000503501262E70E069012805D02046FFF774
:100F900069FD002800D070BD606D08490140300235
:100FA000081860650020A06521681C220A6028706E
:100FB0008A68042313438B6070BDC046FEF0FFFFB8
:100FC000F0B581B004465020205C012802D10220F7
:100FD00001B0F0BD26465036012737702068816881
:100FE00049070ED4826803210A40012A02D102680F
:100FF000D20721D1FF200230616D8143543400209B
:101000003BE08168490706D58168890703D4816878
:1010100010220A43826000F02FF90546206881689B
:101020004907DFD500F028F9411B20680B29F6D3CA
:1010300081684907F3D519E0826805231340012B25
:1010400014D18268022313438360016000F014F915
:10105000054620688068C007CCD000F00DF9411B20
:1010600020680B29F6D38168C907F3D0606D102181
:1010700001436165A16D583438460022327039430E
:10108000216001B0F0BD0000B0B5044600F0F4F8F6
:101090000546601C02D004480078041900F0ECF802
:1010A000401BA042FAD3B0BD00000020F0B58BB0C9
:1010B000099106466548864205D0062009990B68C5
:1010C000002B06D1BFE0052009990B68002B00D149
:1010D000B9E00B21090772180A21CA410092042ABB
:1010E00000D300900124002203940A9208920496EF
:1010F00011E0194356480160099803681846E0401A
:10110000121D641C0A99891C0A910899491C0891AE
:10111000002800D197E0611E0398079188400340A2
:10112000EAD00692099A55680326294631404F1E97
:10113000012F02951AD8032601940A9CA640059314
:10114000049B9F68B743D2680A9CA240019C3A4323
:101150009A60EA06D20F079FBA405F688743174339
:101160005F60059BF543089847000BE030460A9AFC
:101170009040C5430329174604D105950A9F31467F
:10118000049E20E0049EF0682840099A9268BA40C4
:101190000243F2600229059515D11C2006990840EA
:1011A0000F218140079AD2089200B218166A8E4326
:1011B000099D296981403143049E1162069A6D6838
:1011C0000321294001E0069A029DB9403068059F3D
:1011D000384008433060A803800F8DD01D4E306822
:1011E0000121014331600C2010400F218140032276
:1011F000079F9743184D7A598A43009981401143BC
:101200007951099A124881685068C20201D5194380
:1012100000E099430E4A9160D168820201D51943DA
:1012200000E099430A4AD1605168820301D519430D
:1012300000E09943069A064E71603168C00300D5FC
:1012400057E7994356E70BB0F0BDC046001C00506D
:1012500000040140341002400800014000690840C9
:10126000411E88417047002A02D0182281507047E1
:101270002822815070470000CC4800687047C04663
:10128000B0B502464120135C0220202B19D1134631
:1012900040331C78012C14D0242058701068026848
:1012A0000124A24302602203056895430560026899
:1012B0000A43026001682143016000201870202168
:1012C0005970B0BDB0B502464120135C0220202BFE
:1012D00019D1134640331C78012C14D024205870A7
:1012E000106802680124A24302600F2212020568FE
:1012F00095430902294301600168214301600020F0
:10130000187020215970B0BDF0B581B0002822D0EE
:101310000446054640356878002804D1002028702E
:10132000204600F011F9242068702068026801212D
:101330008A4302600F221206636893430361836845
:10134000194A13408360A368E668012E06D1CE03D4
:10135000334383600AE0012001B0F0BD2127BF02C2
:101360003B438360022E01D1CB02436043680F4EA2
:101370001E434660C3681340C36022696369134318
:10138000A26912021A43C260E269236A134303602E
:1013900002680A43026000206064202169702063B3
:1013A000A87001B0F0BDC046FF7FFFFF00800002C3
:1013B000F0B587B004464120205C0227202800D0E9
:1013C000A1E02046403006900078012800D19AE044
:1013D000049305920391012706980770FFF74CFFCD
:1013E00005462068816909041AD42121069A5170A2
:1013F00010219170002262640499618505996162EF
:101400006263618D090A02921FD04949039F0F4010
:101410004168464A0A40001DFF21474B059722E0DC
:10142000FE0302E081693142DFD0FFF725FF411B57
:1014300020681A29F6D381693142F3D0606C2021EB
:1014400008436064069A51706AE0618D4268374EC5
:101450001640374A039B1340CAB212040593D218B0
:10146000001D344B37460C9E17431F4307602185F0
:101470000FE0618D218522685068304B1840C9B259
:101480000904059BC91801235B06121D0843184374
:101490001060608D00282ED0204631462A4601F08B
:1014A000BFFB012700282ED12068616A0A7882627A
:1014B000608D401E6085481C6062208D401E208526
:1014C000618D0029E5D00004E3D100958021002240
:1014D0002046334601F0F2FA002814D1608D000A4C
:1014E000C7D0FF20208520684168144A1140021DA2
:1014F0000598134BCAE7204631462A4601F04DFBBA
:10150000002803D00127384607B0F0BD206820210D
:10151000C16142680B4B13404360069A5170029FB1
:10152000002010709070384607B0F0BD009800FCA5
:10153000FF030000002000020020FF01009C00FCCF
:101540000000FF0100E800FEB0B586B00068104959
:10155000884201D006B0B0BD0E4C2068022108437D
:101560002060206808400090012505950320049024
:10157000039512200290C02001900098064801A90E
:10158000FFF794FD6805E1680143E16006B0B0BD76
:10159000005400402C100240000400501D48007808
:1015A00002490A68101808607047C046C802002047
:1015B00010B50848016840220A4302600024204612
:1015C00000F00AF8002801D0012010BD00F026F834
:1015D000204610BD0020024070B504467D20C000AA
:1015E0000C4E317802F0B0FD01460B48006802F065
:1015F000ABFD00F07DFD0125032C08D8002806D1A5
:101600000025E84321462A4600F020F87460284669
:1016100070BDC0460000002008000020044801689A
:10162000012211430160110742680A43426070477A
:1016300034100240002805D41F21084001218140B8
:10164000014801607047C04600E100E0002805D471
:101650000322034693430C4A9A1806E00F220240E5
:10166000083A03239A43074BD2188007C00E89011A
:10167000C9B28140FF23834010689843084310603B
:101680007047C0461CED00E000E400E0F0B589B012
:1016900007680125EA02114620317C4B0F4272D0C7
:1016A000079208902907143B18680840069002D159
:1016B000186808431860039304912F02744C206843
:1016C000C00511D4206838432060FFF7D5FD0646D9
:1016D0002068384208D1FFF7CFFD801B6428F7D976
:1016E0000325284609B0F0BD0326340567484C3869
:1016F000059001682140089B5868024622400196E7
:101700003604914203D19A682240914207D00146A3
:101710003140B14203D1059909688903E1D40294AB
:101720005A4B596831401ED03040814203D008984E
:101730000078800609D4089880683040814212D031
:1017400008980068079908420DD05868E9045A685B
:101750000A435A605A688A435A600146B143596045
:10176000384200D080E00898076807990F424FD1AF
:10177000B906029C62D40699002904D1039C216811
:10178000049A91432160F9070BD1B90711D4790765
:1017900017D439071ED4790625D400253906A0D5DB
:1017A0002CE0196803229143C2680A431A60B90702
:1017B000EDD519680C22914302690A431A60790732
:1017C000E7D5032189021A688A43416911431960E8
:1017D0003907E0D5032109031A688A438169114357
:1017E00019607906D9D5012189061A688A43016AE8
:1017F000114319600025390600D472E703218A04D9
:1018000019689143C06908431860284609B0F0BDC3
:10181000826811463140B1420AD102980240032346
:101820001B05059D2C689C43184B089814432C609D
:101830005A680A435A60B906029C9CD54268114610
:101840003140B14209D1224003231B05059D2C687C
:101850009C430E4B089814432C605A680A435A6004
:10186000069900298AD08EE7FFF706FD0546904CC1
:10187000064B5868800500D575E7FFF7FDFC401B57
:10188000A042F5D9019D284609B0F0BD4C10024098
:1018900000700040F0B583B00290002846D00E469C
:1018A00082480068012101910840B04216D27F4968
:1018B00008680125A843304308607D4CFFF7DCFC35
:1018C00007467A4800682840B04207D0FFF7D4FCAA
:1018D000C01BA042F5D9032003B0F0BD02980068F8
:1018E0008107834D06D52968F0229143029A9268B8
:1018F0000A432A60C0071CD16C48006801273840A1
:10190000B04225D969490868B8430860684CFFF7B8
:10191000B3FC054665480068C00719D0FFF7ACFC6A
:10192000401BA042F6D9032003B0F0BD012003B054
:10193000F0BD0298426829460C39012A32D0032AA8
:1019400035D0022A39D109688903019833D538E0A6
:10195000029800684107664C07D5072109022268F2
:101960008A430299C96811432160000708D50720FE
:10197000C0022168814302980069C00008432060CA
:1019800021680807820F75487A44127952009744FB
:1019900001617F6838042146083909680904490F44
:1019A000884075E009684907019804D509E009688D
:1019B0008901019805D403B0F0BD09688905019833
:1019C000F9D5296803200190814311432960FFF76D
:1019D00053FC074602984068354C032811D0022872
:1019E0001DD0012829D128680C210140042900D1EB
:1019F00082E7FFF741FCC01BA042F4D9019803B075
:101A0000F0BD28680C2101400C2900D174E7FFF7D4
:101A100033FCC01BA042F4D9019803B0F0BD286884
:101A20000C210140082900D166E7FFF725FCC01B07
:101A3000A042F4D9019803B0F0BD28680007800FD8
:101A400000D159E7FFF718FCC01BA042F5D9019857
:101A500003B0F0BD20460C380068C00612D54148DE
:101A600016E08A02120F3E4B9A5C0902890F491C4C
:101A70002368DB0309D420460C380068C00603D471
:101A8000394802E0384803E03648504302F05CFB36
:101A900021680906090F074A515CC84013490860CC
:101AA00005480068FFF798FD03B0F0BD0020024034
:101AB000881300005D430008040000200B48006804
:101AC0007047C04609480068094909684905490F37
:101AD000084A515CC84070470448006804490968D6
:101AE0008904490F034A515CC84070470800002030
:101AF0000C1002406D43000810B5804AD1680807F9
:101B0000830F16487B441B795B009F440108070D37
:101B10000120000451680904490F884010BD106875
:101B2000C00613D50F4810BD8B021B0F0C4CE35C95
:101B30000902890F491CD468E40303D41068C00665
:101B400006D40948584302F0FFFA10BD064810BDFC
:101B50000448584302F0F8FA10BDC04600127A005B
:101B60007C43000800093D000024F400F0B589B072
:101B7000002856D0614EF1680C220A4006920121DD
:101B800005910904F76804910F4007900078C00799
:101B900010D00698082806D006980C2800D0CFE070
:101BA000002F00D1CCE03068800303D5079840684F
:101BB00000284AD007980078800735D40798007825
:101BC000C00645D40798007800075FD407990878C5
:101BD000400700D594E00878800600D51BE10798FF
:101BE000846A002C1AD006980C2800D067E1012CDA
:101BF0002BD0F068049A0240079BD96A8A4224D10C
:101C00000F21890401401A6B91421ED103218905DD
:101C10000840596B8842059800D053E2002009B073
:101C2000F0BD012009B0F0BD079BD86806990429D2
:101C300006D006990C2900D0ADE0002F00D0AAE014
:101C40003168490739D5002837D1059809B0F0BD6A
:101C50000698002800D1B4E030680799C9690029C6
:101C600000D108E101210A02104330604C02FFF765
:101C700003FB05463068204200D00FE1FFF7FCFA75
:101C8000401B0228F6D9032009B0F0BD306D07993A
:101C90004969002900D1DDE0012108433065FFF7E3
:101CA000EBFA0546306D800790D4FFF7E5FA401B4C
:101CB0000228F7D9032009B0F0BD1F21090272687C
:101CC0008A431969090211437160316809229143FD
:101CD00001433160F1680807820FFB485200C0469B
:101CE0007A4492885200974403002001DE012601C5
:101CF00070680004410F04988840D4E1001002404D
:101D000001221107B06B0840029002D1B06B08436A
:101D1000B063019103921402F24F3868C00525D4D4
:101D2000386820433860FFF7A7FA05463868204234
:101D30001CD1FFF7A1FA411B03206429F6D9C1E1A8
:101D40000798406805994C040499884209D00521F8
:101D50000904884200D0C9E0059880043168014335
:101D600031603068049908433060CFE0079880689C
:101D7000002800D122E1052109028842039A00D1FE
:101D800033E1A04200D134E1306DA04330659102CF
:101D9000306D88432FE13168002800D1DDE0092251
:101DA000914301433160FFF767FA05463068400709
:101DB00000D5F9E0FFF760FA411B03200229F5D9AD
:101DC00080E130688005079B03D5D869002800D1E1
:101DD0003BE70720400371688143586A0143716003
:101DE000FF21090672688A43196A09068918716019
:101DF000400B04998140F0680006000FB64A105C61
:101E0000C140B6480160B6480068FFF7E5FB00280E
:101E100000D057E1D6E6B06807998969002900D15A
:101E2000ACE001210843B060706B08437063480365
:101E3000AE490A6802430A60FFF71EFA0546B06819
:101E4000800700D5CBE6FFF717FA411B03200229D4
:101E5000F5D937E1012188433065FFF70DFA0546D2
:101E6000306D800700D4B1E6FFF706FA411B03206E
:101E70000229F5D926E101210A02904330604C0283
:101E8000FFF7FAF905463068204200D19AE6FFF7DD
:101E9000F3F9411B03200229F5D913E10720400380
:101EA00071688143079A506A08437060FF200006FA
:101EB00071688143106A00064018706082E601274D
:101EC0003806316881433160FFF7D6F90546022CA8
:101ED00000D0AAE07F063068384200D1C1E0FFF7A9
:101EE000CBF9411B03200229F5D9EBE03168049AB4
:101EF000914331603168114008910899059989042E
:101F000032688A433260002800D19CE0FFF7B4F9C0
:101F100005463068204200D04CE6FFF7ADF9401B83
:101F20006428F6D9032009B0F0BD3068C00600D49B
:101F300087E06748B7E08A02120F644B9A5C090297
:101F4000890F491CF368049C234200D0A8E0306844
:101F5000C00600D5A3E05F48A2E0012081433160C4
:101F6000FFF78AF905463068400700D426E6FFF7F8
:101F700083F9411B03200229F5D9A3E001218843FD
:101F8000B060480359490A6882430A60FFF774F950
:101F90000546B068800700D421E6FFF76DF9411BC4
:101FA00003200229F5D98DE01F20000271688143CA
:101FB00007980069000208437060FFE5306DA04398
:101FC0003065039A9002316D814331655402464F6A
:101FD000FFF752F90546306D20421CD0FFF74CF94F
:101FE000411B0320B942F6D96CE09002316D0143E8
:101FF0003165306D2043306554023B4FFFF73CF9AB
:102000000546306D204206D1FFF736F9411B03200B
:10201000B942F6D956E002980028079900D0DAE5CF
:10202000B06B019A9043B063D5E57C0630682042DE
:1020300000D1F3E5FFF720F9411B03200229F5D970
:1020400040E024482FE0FFF717F9054630682042AA
:1020500000D1AFE5FFF710F9411B03206429F5D942
:1020600030E0FD200004F1688143079B2C330DCB49
:10207000084310431843F0602748401C316801436F
:102080003160FFF7F9F804463068384200D0C5E502
:10209000FFF7F2F8011B03200229F5D912E00C48E2
:1020A000504302F051F8F1680906090F0A4A515CE1
:1020B000C8400A4908600A480068FFF78DFA0028FE
:1020C00000D17BE509B0F0BD00127A007C43000826
:1020D00000093D000024F4005D43000808000020D2
:1020E0000400002000700040881300002000014020
:1020F000401E010E01D0012070470749074A506079
:10210000074803680B400321890759180160002024
:102110009060072111607047FFFFFF0010E000E0B2
:1021200020ED00E0B0B53822825C012A01D1022006
:10213000B0BD0246383202235370006843687024F1
:10214000A3430D681D438468456001239D07A84291
:1021500005D0644DA84202D0634DA84204D1802529
:10216000AC43496821438160002010705370B0BDBA
:1021700070B500281FD00446054638356878002819
:1021800004D100202870204600F03AF80220687040
:1021900021680E6801208307994205D0514A914277
:1021A00002D0514A914208D170229643A26832432C
:1021B000994205D10AE0012070BD3246994205D00E
:1021C000484B994202D0484B994205D103231B0248
:1021D0009A432369134300E01346802293436269C4
:1021E0001A430A60E268CA6262688A624861A8713A
:1021F000A870E870287168716870002070BDC046D2
:1022000010B50068384988420BD0114988420FD078
:1022100001218A0790420AD10E4802680A430260EF
:1022200010BD0C48001F016804220A43026010BD63
:102230000848016810220A43026011240021204648
:102240000A46FFF703FA2046FFF7F4F910BDC0462F
:1022500000100040381002403921415C012915D19D
:102260000146393102220A70006801218A07904232
:1022700005D01C4A904202D01B4A904208D1826885
:1022800007231340062B03D100207047012070471D
:1022900002680A43026000207047C0463921415C51
:1022A000012918D10146393102220A700068C2683A
:1022B00001210A43C2608A07904205D0094A904230
:1022C00002D0094A904208D1826807231340062BA6
:1022D00003D1002070470120704702680A43026062
:1022E00000207047001401400008014001680A6A9C
:1022F000054B1A4203D10A6801239A430A60392127
:10230000012242540020704711110000F0B538221C
:10231000825C012A01D10220F0BD0246383202233C
:102320005370504E3346773B0468A0681840A06055
:102330000D6800234F2D1EDC1F2D35DD202D37D0DD
:10234000302D35D0402D00D086E0206A256A012648
:10235000B5432562A569F026B543CE6836012E4304
:10236000A6610A25A843496801432162A068472164
:102370000143302069E06F2D26DD01204703BD4277
:1023800040D00003854218461AD0702D64D1A06851
:1023900030404D688E68C9682E43090231430143BD
:1023A000A160A068772139E0002D01D0102D53D114
:1023B000A06870218843054307202843A060184681
:1023C000137001215170F0BD502D29D0602D43D1E3
:1023D0001020C043256A054025620F252D03A669FC
:1023E000AE43CD682D033543266AA561A025AE43D3
:1023F0004968090131432162A16867250D43054001
:10240000A56024E0A56835404E688F68C9683743E9
:10241000090239432943A1608003A168014315E003
:10242000206A256A0126B5432562A569F026B543D1
:10243000CE6836012E43A6610A25A84349680143A8
:102440002162A0685721014320208143A1601846E2
:10245000137001215170F0BD0120137001215170E2
:10246000F0BDC046FF00FFFF7047B0B504464020F6
:10247000C54320680169890717D5C168890714D544
:1024800029463E310161012121768069800703D010
:102490002046FFF7E9FF05E0204600F071F82046EE
:1024A00000F061F90020207620680169490718D5FD
:1024B000C168490715D529463C31016102212176C1
:1024C00080698005800F03D02046FFF7CDFF05E02F
:1024D000204600F055F8204600F045F9002020760F
:1024E00020680169090717D5C168090714D529466D
:1024F0003831016104212176C069800703D020466C
:10250000FFF7B2FF05E0204600F03AF8204600F061
:102510002AF90020207620680169C90618D5C1680B
:10252000C90615D529463031016108212176C069D7
:102530008005800F03D02046FFF796FF05E0204678
:1025400000F01EF8204600F00EF9002020762068EA
:102550000169C90709D0C168C90706D029463F31BA
:102560000161204600F078F920680169490606D526
:10257000C168490603D50561204600F07DF9B0BD6C
:102580007047000070B53823C35C012B01D10220D5
:1025900070BD034638330224E241032A25D8C046E1
:1025A0007A441279520097440124496A0068026A09
:1025B0000125AA430262026A45688669456073255F
:1025C000AE430D68354385614D684563A2438C6811
:1025D00014430462826908241443846182690424D8
:1025E000A2438261C96818306DE001200021197092
:1025F00070BD0068026A1024A2430262026A446845
:102600008569446073242402A5430C6824022C438A
:1026100084614C6884632024A2438C6824011443A1
:1026200004620122D402856925438561920284698E
:1026300094438461C9680902183044E001221402FD
:102640000068056AA5430562046A4568C669456075
:102650007325AE430D683543C5614D68C5635202AD
:1026600094438A68120222430262C2690824144316
:10267000C461C2690424A243C261C96822E0012284
:1026800014030068056AA5430562046A4568C669C3
:10269000456073252D02AE430D682D023543C5619B
:1026A0004D6805645503AC438D682D0325430562D1
:1026B000D402C5692543C5619202C4699443C461CB
:1026C000C96809021C3002680A4302600020002128
:1026D000197070BD70B500281FD004460546383506
:1026E0006878002804D100202870204600F03AF8CD
:1026F0000220687021680E6801208307994205D086
:102700003D4A914202D03D4A914208D170229643FF
:10271000A2683243994205D10AE0012070BD3246D9
:10272000994205D0344B994202D0344B994205D19D
:1027300003231B029A432369134300E013468022BC
:10274000934362691A430A60E268CA6262688A62F5
:102750004861A871A870E8702871687168700020DD
:1027600070BDC0467047704702463A32002908D013
:1027700008290CD0042910D1531C1B78012B0AD135
:102780000FE01378012B06D10223137013E0931C82
:102790001B78012B05D001207047D31C1B78012B1F
:1027A000F9D10223082903D0042903D1537002E090
:1027B000937000E0D3701F221140012213468B401A
:1027C0000068016A99430162016A19430162910735
:1027D000884205D00849884202D00849884206D17B
:1027E000816807230B40062B01D100207047016848
:1027F00011430160002070470014014000080140AF
:10280000B0B51F230B40012214469C4003681D6A8B
:10281000A5431D621C6A1C621C6A0E4D2C4209D025
:102820003A3008290CD004290DD000290ED10270AD
:102830000020B0BD1C6894431C603A300829F2D1D6
:1028400082700020B0BD42700020B0BDC270002078
:10285000B0BDC0461111000000680649884205D18C
:1028600003488188002901D0491E81807047C046F5
:1028700070000020001000407047B0B500282FD035
:102880000446C06F002805D178200021215420463D
:1028900000F028F82420E067206801680125A9439A
:1028A0000160204600F088FE012817D0606A0028E9
:1028B00002D0204600F0B2FD0920C00221684A681B
:1028C00082434A6088682A2290438860086801220F
:1028D00002430A60204600F00BFE05462846B0BDC4
:1028E0000120B0BD80B586B000681149884201D092
:1028F00006B080BD012041040E4AD3680B43D3606B
:102900001168014311601168014000910420059095
:102910000320049000200390022002900C200190DC
:1029200005200007009901A9FEF7C0FB06B080BD95
:10293000004400402C100240FEE70000F0B585B0D6
:102940000E4604464030049020688169C90606D4CA
:1029500000210F4601258269D30545D448E01021A6
:10296000C1618169890637D4711C32D015460120B6
:10297000002E6CD186030390C7030297FEF77CFC00
:10298000206842680499897883693B4209D03240C3
:1029900007D1202905D0416831434160FEF76CFC26
:1029A000054620688169890605D4FEF765FC401B51
:1029B0001A28F6D377E081698906029FDED50BE0FD
:1029C0008169890608D48169890605D481698906E7
:1029D00002D481698906F3D52021C1610127042130
:1029E00001258269D30503D52B02C36129432F46F4
:1029F0006B02560506D41A420AD1002F0BD10020D3
:102A000005B0F0BDAD02C561082529431A4202D0C8
:102A1000C361022211438269920701D500228262BA
:102A20008269D20703D1826901231343836142681B
:102A3000214B13404360606C08436064202004997C
:102A40004870002008708870012005B0F0BD810337
:102A500002910390C0030190019F03E02068816907
:102A60008906B9D4FEF708FC401BB042F6D92068AD
:102A700042680499897883693B420BD0029B1A40D3
:102A800008D1202906D04168029A11434160FEF71F
:102A9000F3FB0546206880698006DFD4FEF7ECFB77
:102AA000401B1A28F6D3206881692421039F012541
:102AB0008269D30598D49BE700E800FEF0B583B0A7
:102AC0001C4615460E460746036899693140891B26
:102AD0004A424A410020AA4234D1611C2BD0002C2A
:102AE00032D10446FEF7C8FB386881693140891B42
:102AF0004A424A41AA4240D080693040801B41424C
:102B00004141A942EED0204603B0F0BD9969314061
:102B1000891B4A424A41AA4214D199693140891B12
:102B20004A424A41AA420DD199693140891B4A4221
:102B30004A41AA4206D199693140891B4A424A4119
:102B4000AA42E3D003B0F0BD01900898029006E0DD
:102B500080693040801B41424141A9421AD1FEF7B1
:102B60008BFB0299411A3868A142F1D98169314041
:102B7000891B4A424A41AA42EAD138464030796C20
:102B8000202211437964427000210170817001207C
:102B900003B0F0BD019803B0F0BDF0B581B00546BB
:102BA000006880690024800622D416460F4600295A
:102BB00003D129E0806980061AD428463946324676
:102BC000FFF7BCFE002827D1FEF756FB811B2868C3
:102BD000B942EFD981698906ECD428464030696C46
:102BE0002022114369644270002101708170012428
:102BF000204601B0F0BDFEF73FFB286881698906D9
:102C0000EBD580698006F3D400242846214632465D
:102C1000FFF794FE0028EED00124204601B0F0BD5D
:102C2000F0B581B00546006880690024800716D49D
:102C300016460F46481C19D0002F26D100242846DE
:102C400021463246FFF77AFE002838D1FEF714FB02
:102C500028688169890728D580698007EED52046D4
:102C600001B0F0BD286880698007F8D40024E143F2
:102C700028463246FFF762FE0028F3D001242046A2
:102C800001B0F0BD80698007E9D428463946324654
:102C9000FFF754FE002812D1FEF7EEFA811B2868D8
:102CA000B942EFD981698907ECD428464030696C74
:102CB0002022114369644270002101708170012457
:102CC000204601B0F0BD000084B0F0B589B00EAC74
:102CD0000FC4D64C0EA954222046FDF74FFA3220DD
:102CE000FEF7D2F908AA38200490D0703C20039057
:102CF00090700820069050700C200590107064258C
:102D000000954E2104232046FEF752FBC84C67680D
:102D100020680290FEF7D2FEC64901F015FA68431A
:102D200060606068A0600120206007900604206851
:102D3000304208D12068304205D12068304202D1AB
:102D400020683042F3D06760029820600520FEF7CB
:102D50009BF908AA0498D070039890700698507058
:102D6000059810700095B1484E210423FEF720FB12
:102D7000676820680290FEF7A1FEAE4901F0E4F911
:102D8000684360606068A0600798206020683042F7
:102D900008D12068304205D12068304202D1206835
:102DA0003042F3D067600298206008AA0498D0707F
:102DB00003989070069850700598107000959B4885
:102DC0004E210423FEF7F4FA676820680490FEF7AA
:102DD00075FE984901F0B8F9684360606068A060CA
:102DE000079820602068304208D12068304205D121
:102DF0002068304202D120683042F3D067600498E6
:102E0000206008AA28200490D0702C200390907095
:102E10000698507005981070009584484E21042340
:102E2000FEF7C6FA676820680290FEF747FE814900
:102E300001F08AF9684360606068A06007982060CC
:102E40002068304208D12068304205D120683042E5
:102E500002D120683042F3D067600298206008AA4F
:102E600088200290D0708C27977004985070039837
:102E7000107000956D484E210423FEF799FA6068A2
:102E8000049020680390FEF719FE6A4901F05CF98E
:102E9000684360606068A0600798206020683042E6
:102EA00008D12068304205D12068304202D1206824
:102EB0003042F3D0049860600398206008AA02981A
:102EC000D07097700698507005981070009557480C
:102ED0004E210423FEF76CFA676820680490FEF721
:102EE000EDFD544901F030F9684360606068A0600E
:102EF000079820602068304208D12068304205D110
:102F00002068304202D120683042F3D067600498D4
:102F1000206008AA1820D0701C209070069850706D
:102F200005981070009541484E210423FEF740FAA1
:102F3000676820680490FEF7C1FD3E4901F004F97E
:102F4000684360606068A060079820602068304235
:102F500008D12068304205D12068304202D1206873
:102F60003042F3D06760049820600320FEF78CF8AD
:102F700008AA6820D0706C20907006985070059850
:102F80001070009529484E210423FEF711FA676856
:102F900020680490FEF792FD264901F0D5F86843B9
:102FA00060606068A060079820602068304208D1A7
:102FB0002068304205D12068304202D1206830427A
:102FC000F3D067600498206008AAC820D070CC2095
:102FD00090700698507005981070009513484E2117
:102FE0000423FEF7E5F9676820680690FEF766FDA2
:102FF000104901F0A9F8684360606068A060079814
:1030000020602068304208D12068304205D1206815
:10301000304202D120683042F3D0676006982060C9
:1030200009B0F0BC01BC04B00047C04674020020E7
:1030300010E000E000127A0070B582B02C221C482B
:10304000002181541B4A052308250124816204269E
:10305000016341638363C163A3072CC00C3802463C
:103060000C3252C28161C16122020284FF22C2324B
:10307000426201910091FDF7DDFD002801D0FDF7CE
:103080004BFD00942003019009486946FDF748FD77
:10309000002801D0FDF740FD07480090044869462C
:1030A000FDF73EFD002801D0FDF736FD02B070BDF2
:1030B0007C0000200024014002000004F0B589B02B
:1030C000002408940794AD4801680422114301606C
:1030D0000168114003910399016880221143016046
:1030E0000168114003910399016801263143016091
:1030F0000168314003910399016802221143016084
:1031000000681040039003982548FF210191224652
:10311000FEF7A9F80520000702902025294622463F
:10312000FEF7A1F89648294600952246FEF79BF83F
:1031300006942120000405907003049004AF184801
:103140003946FDF7B3FF079406940596019804905D
:1031500013483946FDF7AAFF07940694059604958F
:1031600002983946FDF7A2FF0696059403200490C5
:10317000834D28463946FDF799FF069405941020A3
:10318000049028463946FDF791FF0794069405966A
:103190000098049028463946FDF788FF09B0F0BD35
:1031A0000008005010B5124800210122114B124CAA
:1031B000046043608160C260016141618161C161FD
:1031C0000162FEF7A1F8002801D0FDF7A5FC084830
:1031D0000021FEF755F8002801D0FDF79DFC0448BA
:1031E0000021FEF76FF8002801D0FDF795FC10BD17
:1031F000D8000020BB7C70000054004010B586B0A1
:1032000015480021154A1F23154C04604360816056
:10321000C2600161416105910491039101910091A6
:10322000FEF7A6FF002801D0FDF776FC0120000381
:103230000290094802A9FFF769F8002801D0FDF7BC
:103240006BFC05486946FEF76DFF002801D0FDF7CD
:1032500063FC06B010BDC0466C010020FFFF0000FB
:1032600000080140F0B591B042480024424A1F21B5
:103270000126B707076041608460C2600461446151
:103280000A94099408940594049403940294019474
:103290000094FEF76DFF002801D0FDF73DFC3003E0
:1032A0000790344807A9FFF731F8002801D0FDF74F
:1032B00033FC3048FFF70EFA002801D0FDF72CFC54
:1032C000059404942B4804A9FEF72CFF002801D094
:1032D000FDF722FC0394029401946020009025489D
:1032E00069462246FFF74EF9002801D0FDF714FC8D
:1032F000204869460422FFF745F9002801D0FDF770
:103300000BFC1C4D694608222846FFF73BF90028B4
:1033100001D0FDF701FC2868B84201D011B0F0BD22
:1033200016480168022739430160016839400C9151
:103330000C99016831430160006830400B90109790
:103340000F940E940D970C4821300C900B980C485C
:103350000CAD2946FDF7AAFE0F940E940D97F003CD
:103360000C900520109000072946FDF79FFE11B034
:10337000F0BDC0462C010020E70300002C100240E5
:103380000004005010B582B023480021416163223F
:103390000C4BFF24403418C0016042600191009141
:1033A0000838FEF7E5FE002801D0FDF7B5FB1A4806
:1033B0006946FEF7B7FE002801D0FDF7ADFB02B06D
:1033C00010BDC0460010004010B50B4800210C2273
:1033D000EE4B01624162E124640218C00160416069
:1033E0008160C260016141610838FFF746FA002838
:1033F00001D0FDF791FB10BDEC010020FEE7704706
:10340000704780B5FEF7CAF880BD704780B50248A6
:10341000FFF72BF880BDC046AC010020B0B5416A73
:10342000CA070CD18A0714D44A071CD40A0724D42B
:10343000CA062CD48A0634D44A063CD44CE0012275
:10344000520403685C689443826A22435A608A0784
:10345000EAD50122120403685C689443C26A2243DD
:103460005A604A07E2D50122920403685C689443DB
:10347000026B22435A600A07DAD50122D20303689D
:103480005C689443426B22435A60CA06D2D501223B
:10349000120303689C689443826B22439A608A06F5
:1034A000CAD50122520303689C689443C26B22432D
:1034B0009A604A0610D501221305026854689C439D
:1034C000056C2C4354609D4206D103235B05546870
:1034D0009C43436C23435360090607D50121C9046B
:1034E000026853688B43806C18435060B0BD000085
:1034F000F0B583B00446842000262650274678374E
:10350000FDF7BAFE03462068016809071FD5294860
:103510000090012002904105002220461D4600F047
:103520004FF9002811D0EFF31080029981F3108831
:1035300021680A6880239A430A6080F3108820205B
:10354000E06703203E7003B0F0BD20682B460068A2
:10355000400725D5174800900125A90500222046DF
:1035600000F02EF900281BD0EFF3108085F31088AF
:1035700009214901226813688B43136080F3108886
:10358000EFF3108085F3108821688A68AA438A6067
:1035900080F310882020B86003203E7003B0F0BD97
:1035A0002020E067B8602666666630463E7003B04D
:1035B000F0BDC046FFFFFF01F0B581B004460168D1
:1035C0000868704B0340A068226902436069104399
:1035D000E269104318430860032630034B688343B5
:1035E000E06818434860A569674B994202D0206A99
:1035F000284300E028460B252D028F68AF43074380
:103600008F606248814208D099420AD06048814266
:1036100038D16048C06C61A507E05E48C06C800886
:1036200002E05C48C06C800A5B4D8007000F2F5899
:103630000125E80399422AD0824211D1082F00D9EE
:1036400099E0C0467F443F797F00BF44043D4794E2
:103650004D9494947600FEF735FA002848D06CE03B
:10366000082F00D987E0C0467F443F797F00BF44E0
:1036700004304182478282827500FEF723FA0028D7
:103680006CD141E010270125E8039942D4D1082FDD
:1036900071D8C0467F443F797F00BF44046C096CF9
:1036A0000F6C6C6C3800FEF70DFA00282FD109E082
:1036B00038480068C00629D53D4828E0FEF71CFAC6
:1036C000002824D1002556E0FEF706FA002834D160
:1036D0000EE0FEF701FA002840D115E02D48006801
:1036E000C00629D5324828E0FEF706FA002824D182
:1036F000002540E027480068C0062ED52C482DE064
:10370000FEF7FAF9002829D1002534E0274862683D
:103710005643B0422FD3110388422CD8010E5608CD
:103720000002002380195941FCF760FD224941182D
:10373000224A91421FD21BE01C48400061684A089F
:10374000101800F001FD0246103A1A498A4212D2BE
:1037500001400007400F08430AE0144861684A0826
:10376000101800F0F1FC01461039124A914202D2C1
:103770002168C86000250020A066E066284601B0E8
:10378000F0BDC046F369FFEF004800400044004030
:10379000003801400010024098430008010000007A
:1037A0000400000002000000080000000024F400F3
:1037B00000093D00F0FF000000FDFFFF00FD0F00CD
:1037C000F0B587B015460F460668F1693940C91B48
:1037D0004A424A410021AA4225D106930C9C002C62
:1037E00024D00B46611C26D1F1693940C91B4A42DD
:1037F0004A41AA4214D1F1693940C91B4A424A419F
:10380000AA420DD1F1693940C91B4A424A41AA4234
:1038100006D1F1693940C91B4A424A41AA42E3D064
:10382000184607B0F0BD084607B0F0BDFDF724FD0F
:10383000032007B0F0BD02930146783103910121C6
:103840000191C9020491059006E0C9693940CA1B7B
:1038500051425141A9424BD1FDF70EFD0699411A43
:103860000323A142DCD8059801680A685207ECD509
:10387000CA6912073FD4CA692646049C22423446CC
:10388000E3D01F4604980862EFF31082012181F310
:10389000108809235B010598046825689D4325600D
:1038A00082F31088EFF3108281F310880598036883
:1038B0009C688C439C60059882F31088026E012AF4
:1038C0000BD1EFF3108281F3108801680B6810248C
:1038D000A3430B60059882F310882021039B996015
:1038E0000022026682661A70D960384607B0F0BDC1
:1038F000029807B0F0BD08250D62EFF31081019822
:1039000080F3108809225201059B1B681C689443B0
:103910001C6081F31088EFF3108180F31088059A02
:103920001268936883439360059B81F31088196E36
:1039300001290CD1EFF31081012282F310881A685B
:1039400013681024A3431360059B81F31088202182
:10395000039A91600021196699661170D56007B0CD
:10396000F0BD0000F0B587B01EA001AC21460CC828
:103970000CC12CC82CC18020214600F067FBC02060
:10398000214600F063FB06AA0820D0700C2090703E
:10399000882050708C2010706427009716484E21A4
:1039A0000423FDF705FD154C65682668FEF786F8CB
:1039B000134900F0C9FB784360606068A060012093
:1039C000206000042168014208D12168014205D12C
:1039D0002168014202D121680142F3D0656026606E
:1039E00007B0F0BD202020202020202020202020F3
:1039F00020202020000000007402002010E000E0E1
:103A000000127A00B4B0FDF7D3FD26AC201D2421AE
:103A1000FCF7C8FD002620961F961E961D961C9644
:103A20001B961A96199603201790C00289490A68B6
:103A3000824301202990C302D2180A6031960227DE
:103A4000309710252A95269781053391800432906E
:103A50002046FEF78BF8002803D0EFF3108072B6F3
:103A6000FEE71697259624962396179822900F2006
:103A7000219021A801242146FDF70CFF002803D046
:103A8000EFF3108072B6FEE71E961C960A27189771
:103A900018A8FDF7FBFD002803D0EFF3108072B6E5
:103AA000FEE7129415961197FFF708FBFFF7DAFB74
:103AB000FFF768FCFFF788FCFFF7BEFAFFF772FB21
:103AC000FFF79CFB6448FEF7E9FB644C204610308E
:103AD0006946634A036804300B600431043AF9D143
:103AE0000FCCFFF7F1F8FFF73DFF5E481599FEF7A1
:103AF0003BFED520C0001490D0305B4C2060EF20FE
:103B00008700A76013975949129808601920060189
:103B10003046FDF7B9FA1498206038466838A0603E
:103B20001698524908603046FDF7AEFA5048F23018
:103B300020603846C538A060042016904B490860C4
:103B40003046FDF7A1FA4A489C302060F03FA7605C
:103B500008201490454F38603046FDF795FA4448E8
:103B600020603046EE30A0603D6035463046FDF7BF
:103B70008BFAFD20860030467C3020602846A83035
:103B8000A060202038602846FDF77EFA266028468F
:103B90006A30A060402038602846FDF775FA139817
:103BA000206028464E30A060802038602846FDF70F
:103BB0006BFA15993960F64D2846FEF721FE284626
:103BC0001699FEF7D1FD2846149912E0EE48281800
:103BD000401E0078F34A9070507841424141517044
:103BE0004800EA49085AEB4908604008886000210B
:103BF000E748FEF7B9FDE8480069179D854326AC04
:103C00002046E6A12A46FCF779FB8020214600F0F9
:103C10001DFAE448C078A84213D0FFF7A3FEE2489B
:103C2000FDF7CEF9DA48159C2146FEF7E9FD632041
:103C3000D84908600C61CC60DA48848084700480C4
:103C4000C5706D007D44AD886D00AF446200130007
:103C50008800560100700040AC010020D800002010
:103C6000440000002C0100202C00004014080050EB
:103C7000FC040000DE482890DE482790DE482690AD
:103C8000852026AC214600F0E1F9C74F3846FDF704
:103C90006BF9012538462946FDF7D2F83846FCF77E
:103CA000C5FFFCF7E4FC00221692D44BFCF7E2FCC3
:103CB000FCF77EFCBB4E30703846FDF755F93846B0
:103CC0002946FDF7BDF83846FCF7B0FFFCF7CFFCFE
:103CD000169ACA4BFCF7CEFCFCF76AFC03467070E0
:103CE00032782046C6A1FCF709FBC020214600F02F
:103CF000ADF93078A74AD0607078401EC649484375
:103D0000C10F00144008401880B2C449085C10611B
:103D100071E726AC0B222046C1A1FCF7EFFA852003
:103D2000214600F093F99F4E33782046C0A1C4A2EB
:103D3000FCF7E4FAC020214600F088F9B08800289A
:103D400000D058E76420974B98801878401CBE49F3
:103D50004143C90C65224A43801A18704BE726A9D3
:103D60001598887298480881984827909848269016
:103D7000852000F06BF98B488088002800D03AE756
:103D800032208849888020250124834E30462946E8
:103D90002246FDF768FA304629462246FDF763FAC7
:103DA000304629462246FDF75EFA3046294622462D
:103DB000FDF759FA304629462246FDF754FA3046B7
:103DC00029462246FDF74FFA304629462246FDF79E
:103DD0004AFA304629462246FDF745FA304629463A
:103DE0002246FDF740FA304629462246FDF73BFAC7
:103DF000304629462246FDF736FA30462946224605
:103E0000FDF731FA304629462246FDF72CFA3046B6
:103E100029462246FDF727FA304629462246FDF775
:103E200022FA0024304629462246FDF71CFA1021CA
:103E30005948FDF713FA0028F9D0664801684C622A
:103E4000FEF70AFA10215448FDF708FA0028F9D1C4
:103E5000604F3846FEF74AFA524881791691C17987
:103E600014918171017A1391C171417A0D460172E9
:103E7000867A46723868406A3A2100F065F9FC217A
:103E80000140632900D96320464988721698149925
:103E9000401813994018401980194F4941438B0C21
:103EA000C72805D8D8B2CD214143C80A17990C1AA2
:103EB000E5B226AE304649A12A46FCF71FFAC020DB
:103EC000314600F0C3F8002C03D036480078854214
:103ED00007D0002133488170417004702C48FEF7F0
:103EE0008FFC200600D186E62E488078002800D17D
:103EF0006CE6401E2B4988707DE626AC1598207232
:103F00002A4827902A4826908520214600F09EF8CE
:103F1000244E73783278204626A1FCF7EFF9C020B2
:103F2000214600F093F8B088002800D063E611988D
:103F30001C4988808878C107129901D01599C94316
:103F4000184B022804D21A7852181A70597803E0D4
:103F50005A78511859701A7813460B43DEB27342DF
:103F60007341D2B2632A04D0002B02D1CBB2632BAF
:103F700004D1401C179B18400A4B9870054BDA601F
:103F8000C8B2186137E6C04675430008864300088A
:103F90002C0100202C000040000400504D4F4445EF
:103FA00025640000700000207C0000205F50574D09
:103FB000203A203250574D313A2530326420505744
:103FC0004D323A253032640030340000435F5352A2
:103FD000203A20486C010020CDCC0000737465703D
:103FE0003A20256420646973743A253033640000F4
:103FF0006463320063312F61203A61640000B93F8D
:1040000044313D253032646F2F6F44323D253032CC
:10401000646F2F6F000000007B14000078430008DD
:10402000202F204E4F203A2025303264000000001F
:1040300025735F636E74203A2025303364000000DE
:1040400030352F323700000047140000F0B587B03C
:104050000C4601010B46083305AAD3700C31917050
:10406000F02101400846083050700C311170642670
:10407000009632484E210423FDF79AF9304D6F68BF
:1040800028680490FDF71AFD2E4900F05DF80296AD
:10409000704368606868A860012028600190060489
:1040A0002868304208D12868304205D1286830425B
:1040B00002D128683042F3D06F60049828602078DD
:1040C00005E004986860039828607C1C78780028D4
:1040D00031D0274601010B46093306AAD3700D31B2
:1040E00091700F2188430146093151700D301070D5
:1040F000029C00944E2104231048FDF759F968688A
:10410000049028680390FDF7D9FC0E4900F01CF8D4
:10411000604368606868A860019828602868304239
:10412000CFD128683042CCD128683042C9D1286824
:104130003042F3D0C5E707B0F0BDC046740200209E
:1041400010E000E000127A0043088B421AD30022EC
:1041500003098B4279D3030A8B425ED3030B8B4254
:1041600042D3030C8B4227D30902FF2212BA030C5D
:104170008B4202D31212090203D0030B8B4233D3BA
:104180001AE0D3E0411A8041401C704703460B43BC
:1041900071D443088B42F5D3002203098B4254D3D8
:1041A000030A8B4239D3030B8B421DD3030C8B4282
:1041B00002D394466EE0090AC30B8B4201D3CB03B2
:1041C000C01A5241830B8B4201D38B03C01A524158
:1041D000430B8B4201D34B03C01A5241030B8B425A
:1041E00001D30B03C01A5241C30A8B4201D3CB0245
:1041F000C01A5241830A8B4201D38B02C01A52412A
:10420000430A8B4201D34B02C01A5241030A8B422C
:1042100001D30B02C01A5241CDD2C3098B4201D344
:10422000CB01C01A524183098B4201D38B01C01AC2
:10423000524143098B4201D34B01C01A5241030939
:104240008B4201D30B01C01A5241C3088B4201D3E8
:10425000CB00C01A524183088B4201D38B00C01A95
:10426000524143088B4201D34B00C01A5241411ABC
:10427000524110007047CA0F00D04942031000D3CA
:104280004042534000229C4603098B422DD3030A2F
:104290008B4212D38901FC2212BA030A8B420CD33F
:1042A000890192118B4208D3890192118B4204D368
:1042B000890137D0921100E08909C3098B4201D3EB
:1042C000CB01C01A524183098B4201D38B01C01A22
:1042D000524143098B4201D34B01C01A5241030999
:1042E0008B4201D30B01C01A5241C3088B4201D348
:1042F000CB00C01A524183088B4201D38B00C01AF5
:104300005241D9D243088B4201D34B00C01A5241CB
:10431000411A00D201465241104663465B1000D359
:104320004042704763465B1000D3404201B5002114
:10433000004201D0C9430846C046C04602BD3038DD
:104340000A2801D2012070470020704704000008AD
:10435000000000000000000200010000100000004A
:104360000000000000010203040607080900000025
:1043700000010203040A050200193264030406085E
:104380000C101820300000007807A806EE059805EC
:10439000FC047004F403BC030000000004000000EF
:1043A0000200000008000000C843000800000020D0
:1043B0001000000004010008D8430008100000208D
:1043C000C0080000200100080100000004000000F7
:0843D0000000200000000000C5
:04000005080000C12E
:00000001FF
